{
  "contractName": "RideSharing",
  "abi": [
    {
      "inputs": [],
      "stateMutability": "nonpayable",
      "type": "constructor"
    },
    {
      "anonymous": false,
      "inputs": [
        {
          "indexed": true,
          "internalType": "uint256",
          "name": "id",
          "type": "uint256"
        }
      ],
      "name": "RideCompleted",
      "type": "event"
    },
    {
      "anonymous": false,
      "inputs": [
        {
          "indexed": true,
          "internalType": "uint256",
          "name": "id",
          "type": "uint256"
        },
        {
          "indexed": true,
          "internalType": "address",
          "name": "driver",
          "type": "address"
        },
        {
          "indexed": false,
          "internalType": "string",
          "name": "source",
          "type": "string"
        },
        {
          "indexed": false,
          "internalType": "string",
          "name": "destination",
          "type": "string"
        },
        {
          "indexed": false,
          "internalType": "uint256",
          "name": "seats",
          "type": "uint256"
        },
        {
          "indexed": false,
          "internalType": "uint256",
          "name": "amount",
          "type": "uint256"
        }
      ],
      "name": "RideProposed",
      "type": "event"
    },
    {
      "anonymous": false,
      "inputs": [
        {
          "indexed": true,
          "internalType": "uint256",
          "name": "id",
          "type": "uint256"
        },
        {
          "indexed": true,
          "internalType": "address",
          "name": "user",
          "type": "address"
        }
      ],
      "name": "RideSelected",
      "type": "event"
    },
    {
      "inputs": [],
      "name": "rideCount",
      "outputs": [
        {
          "internalType": "uint256",
          "name": "",
          "type": "uint256"
        }
      ],
      "stateMutability": "view",
      "type": "function"
    },
    {
      "inputs": [
        {
          "internalType": "uint256",
          "name": "",
          "type": "uint256"
        }
      ],
      "name": "rides",
      "outputs": [
        {
          "internalType": "uint256",
          "name": "id",
          "type": "uint256"
        },
        {
          "internalType": "address payable",
          "name": "driver",
          "type": "address"
        },
        {
          "internalType": "string",
          "name": "source",
          "type": "string"
        },
        {
          "internalType": "string",
          "name": "destination",
          "type": "string"
        },
        {
          "internalType": "uint256",
          "name": "seats",
          "type": "uint256"
        },
        {
          "internalType": "uint256",
          "name": "amount",
          "type": "uint256"
        },
        {
          "internalType": "enum RideSharing.RideStatus",
          "name": "status",
          "type": "uint8"
        },
        {
          "internalType": "address payable",
          "name": "user",
          "type": "address"
        }
      ],
      "stateMutability": "view",
      "type": "function"
    },
    {
      "inputs": [
        {
          "internalType": "string",
          "name": "_source",
          "type": "string"
        },
        {
          "internalType": "string",
          "name": "_destination",
          "type": "string"
        },
        {
          "internalType": "uint256",
          "name": "_seats",
          "type": "uint256"
        },
        {
          "internalType": "uint256",
          "name": "_amount",
          "type": "uint256"
        }
      ],
      "name": "proposeRide",
      "outputs": [],
      "stateMutability": "nonpayable",
      "type": "function"
    },
    {
      "inputs": [
        {
          "internalType": "uint256",
          "name": "_rideId",
          "type": "uint256"
        }
      ],
      "name": "selectRide",
      "outputs": [],
      "stateMutability": "payable",
      "type": "function"
    },
    {
      "inputs": [
        {
          "internalType": "uint256",
          "name": "_rideId",
          "type": "uint256"
        }
      ],
      "name": "completeRide",
      "outputs": [],
      "stateMutability": "nonpayable",
      "type": "function"
    }
  ],
  "bytecode": "0x608060405234801561001057600080fd5b507383bca54e0689d3e2fbb8ca4bbbb497a2614dc55a600260006101000a81548173ffffffffffffffffffffffffffffffffffffffff021916908373ffffffffffffffffffffffffffffffffffffffff1602179055506113a8806100756000396000f3fe60806040526004361061004a5760003560e01c806343625bc11461004f5780635205f112146100785780638a070a06146100bc578063b47c1883146100d8578063c416dd0b14610103575b600080fd5b34801561005b57600080fd5b5061007660048036038101906100719190610ada565b61012c565b005b34801561008457600080fd5b5061009f600480360381019061009a9190610b79565b61033b565b6040516100b3989796959493929190610cec565b60405180910390f35b6100d660048036038101906100d19190610b79565b6104e0565b005b3480156100e457600080fd5b506100ed6106be565b6040516100fa9190610d78565b60405180910390f35b34801561010f57600080fd5b5061012a60048036038101906101259190610b79565b6106c4565b005b60008081548092919061013e90610dc2565b919050555060405180610100016040528060005481526020013373ffffffffffffffffffffffffffffffffffffffff1681526020018581526020018481526020018381526020018281526020016000600281111561019f5761019e610c75565b5b8152602001600073ffffffffffffffffffffffffffffffffffffffff1681525060016000805481526020019081526020016000206000820151816000015560208201518160010160006101000a81548173ffffffffffffffffffffffffffffffffffffffff021916908373ffffffffffffffffffffffffffffffffffffffff16021790555060408201518160020190816102399190611016565b50606082015181600301908161024f9190611016565b506080820151816004015560a0820151816005015560c08201518160060160006101000a81548160ff0219169083600281111561028f5761028e610c75565b5b021790555060e08201518160060160016101000a81548173ffffffffffffffffffffffffffffffffffffffff021916908373ffffffffffffffffffffffffffffffffffffffff1602179055509050503373ffffffffffffffffffffffffffffffffffffffff166000547f8123e9d2b1d55bc40396a887321b34a3ce0a281d761ad2e04579b4a28f67f2998686868660405161032d94939291906110e8565b60405180910390a350505050565b60016020528060005260406000206000915090508060000154908060010160009054906101000a900473ffffffffffffffffffffffffffffffffffffffff169080600201805461038a90610e39565b80601f01602080910402602001604051908101604052809291908181526020018280546103b690610e39565b80156104035780601f106103d857610100808354040283529160200191610403565b820191906000526020600020905b8154815290600101906020018083116103e657829003601f168201915b50505050509080600301805461041890610e39565b80601f016020809104026020016040519081016040528092919081815260200182805461044490610e39565b80156104915780601f1061046657610100808354040283529160200191610491565b820191906000526020600020905b81548152906001019060200180831161047457829003601f168201915b5050505050908060040154908060050154908060060160009054906101000a900460ff16908060060160019054906101000a900473ffffffffffffffffffffffffffffffffffffffff16905088565b6000811180156104f257506000548111155b610531576040517f08c379a000000000000000000000000000000000000000000000000000000000815260040161052890611187565b60405180910390fd5b60006001600083815260200190815260200160002090506000600281111561055c5761055b610c75565b5b8160060160009054906101000a900460ff1660028111156105805761057f610c75565b5b146105c0576040517f08c379a00000000000000000000000000000000000000000000000000000000081526004016105b7906111f3565b60405180910390fd5b80600501543414610606576040517f08c379a00000000000000000000000000000000000000000000000000000000081526004016105fd9061125f565b60405180910390fd5b338160060160016101000a81548173ffffffffffffffffffffffffffffffffffffffff021916908373ffffffffffffffffffffffffffffffffffffffff16021790555060018160060160006101000a81548160ff0219169083600281111561067157610670610c75565b5b02179055503373ffffffffffffffffffffffffffffffffffffffff16827f218e6632b5858f289cc960ccb822e203ba2a383edbbfa817cb19189daa2de8e560405160405180910390a35050565b60005481565b6000811180156106d657506000548111155b610715576040517f08c379a000000000000000000000000000000000000000000000000000000000815260040161070c90611187565b60405180910390fd5b60006001600083815260200190815260200160002090508060010160009054906101000a900473ffffffffffffffffffffffffffffffffffffffff1673ffffffffffffffffffffffffffffffffffffffff163373ffffffffffffffffffffffffffffffffffffffff16146107be576040517f08c379a00000000000000000000000000000000000000000000000000000000081526004016107b5906112cb565b60405180910390fd5b600160028111156107d2576107d1610c75565b5b8160060160009054906101000a900460ff1660028111156107f6576107f5610c75565b5b14610836576040517f08c379a000000000000000000000000000000000000000000000000000000000815260040161082d90611337565b60405180910390fd5b60028160060160006101000a81548160ff0219169083600281111561085e5761085d610c75565b5b0217905550600260009054906101000a900473ffffffffffffffffffffffffffffffffffffffff1673ffffffffffffffffffffffffffffffffffffffff16631a69523082600501548360010160009054906101000a900473ffffffffffffffffffffffffffffffffffffffff166040518363ffffffff1660e01b81526004016108e79190611357565b6000604051808303818588803b15801561090057600080fd5b505af1158015610914573d6000803e3d6000fd5b5050505050817f63e5b4bf8bc6c9cf867e6cc4d53f654c1f0365d975100e04129de6383f8c4b2360405160405180910390a25050565b6000604051905090565b600080fd5b600080fd5b600080fd5b600080fd5b6000601f19601f8301169050919050565b7f4e487b7100000000000000000000000000000000000000000000000000000000600052604160045260246000fd5b6109b182610968565b810181811067ffffffffffffffff821117156109d0576109cf610979565b5b80604052505050565b60006109e361094a565b90506109ef82826109a8565b919050565b600067ffffffffffffffff821115610a0f57610a0e610979565b5b610a1882610968565b9050602081019050919050565b82818337600083830152505050565b6000610a47610a42846109f4565b6109d9565b905082815260208101848484011115610a6357610a62610963565b5b610a6e848285610a25565b509392505050565b600082601f830112610a8b57610a8a61095e565b5b8135610a9b848260208601610a34565b91505092915050565b6000819050919050565b610ab781610aa4565b8114610ac257600080fd5b50565b600081359050610ad481610aae565b92915050565b60008060008060808587031215610af457610af3610954565b5b600085013567ffffffffffffffff811115610b1257610b11610959565b5b610b1e87828801610a76565b945050602085013567ffffffffffffffff811115610b3f57610b3e610959565b5b610b4b87828801610a76565b9350506040610b5c87828801610ac5565b9250506060610b6d87828801610ac5565b91505092959194509250565b600060208284031215610b8f57610b8e610954565b5b6000610b9d84828501610ac5565b91505092915050565b610baf81610aa4565b82525050565b600073ffffffffffffffffffffffffffffffffffffffff82169050919050565b6000610be082610bb5565b9050919050565b610bf081610bd5565b82525050565b600081519050919050565b600082825260208201905092915050565b60005b83811015610c30578082015181840152602081019050610c15565b60008484015250505050565b6000610c4782610bf6565b610c518185610c01565b9350610c61818560208601610c12565b610c6a81610968565b840191505092915050565b7f4e487b7100000000000000000000000000000000000000000000000000000000600052602160045260246000fd5b60038110610cb557610cb4610c75565b5b50565b6000819050610cc682610ca4565b919050565b6000610cd682610cb8565b9050919050565b610ce681610ccb565b82525050565b600061010082019050610d02600083018b610ba6565b610d0f602083018a610be7565b8181036040830152610d218189610c3c565b90508181036060830152610d358188610c3c565b9050610d446080830187610ba6565b610d5160a0830186610ba6565b610d5e60c0830185610cdd565b610d6b60e0830184610be7565b9998505050505050505050565b6000602082019050610d8d6000830184610ba6565b92915050565b7f4e487b7100000000000000000000000000000000000000000000000000000000600052601160045260246000fd5b6000610dcd82610aa4565b91507fffffffffffffffffffffffffffffffffffffffffffffffffffffffffffffffff8203610dff57610dfe610d93565b5b600182019050919050565b7f4e487b7100000000000000000000000000000000000000000000000000000000600052602260045260246000fd5b60006002820490506001821680610e5157607f821691505b602082108103610e6457610e63610e0a565b5b50919050565b60008190508160005260206000209050919050565b60006020601f8301049050919050565b600082821b905092915050565b600060088302610ecc7fffffffffffffffffffffffffffffffffffffffffffffffffffffffffffffffff82610e8f565b610ed68683610e8f565b95508019841693508086168417925050509392505050565b6000819050919050565b6000610f13610f0e610f0984610aa4565b610eee565b610aa4565b9050919050565b6000819050919050565b610f2d83610ef8565b610f41610f3982610f1a565b848454610e9c565b825550505050565b600090565b610f56610f49565b610f61818484610f24565b505050565b5b81811015610f8557610f7a600082610f4e565b600181019050610f67565b5050565b601f821115610fca57610f9b81610e6a565b610fa484610e7f565b81016020851015610fb3578190505b610fc7610fbf85610e7f565b830182610f66565b50505b505050565b600082821c905092915050565b6000610fed60001984600802610fcf565b1980831691505092915050565b60006110068383610fdc565b9150826002028217905092915050565b61101f82610bf6565b67ffffffffffffffff81111561103857611037610979565b5b6110428254610e39565b61104d828285610f89565b600060209050601f831160018114611080576000841561106e578287015190505b6110788582610ffa565b8655506110e0565b601f19841661108e86610e6a565b60005b828110156110b657848901518255600182019150602085019450602081019050611091565b868310156110d357848901516110cf601f891682610fdc565b8355505b6001600288020188555050505b505050505050565b600060808201905081810360008301526111028187610c3c565b905081810360208301526111168186610c3c565b90506111256040830185610ba6565b6111326060830184610ba6565b95945050505050565b7f496e76616c696420726964652049440000000000000000000000000000000000600082015250565b6000611171600f83610c01565b915061117c8261113b565b602082019050919050565b600060208201905081810360008301526111a081611164565b9050919050565b7f52696465206e6f7420617661696c61626c650000000000000000000000000000600082015250565b60006111dd601283610c01565b91506111e8826111a7565b602082019050919050565b6000602082019050818103600083015261120c816111d0565b9050919050565b7f496e636f727265637420616d6f756e742073656e740000000000000000000000600082015250565b6000611249601583610c01565b915061125482611213565b602082019050919050565b600060208201905081810360008301526112788161123c565b9050919050565b7f4f6e6c79206472697665722063616e20636f6d706c6574652072696465000000600082015250565b60006112b5601d83610c01565b91506112c08261127f565b602082019050919050565b600060208201905081810360008301526112e4816112a8565b9050919050565b7f52696465206e6f74206f6e676f696e6700000000000000000000000000000000600082015250565b6000611321601083610c01565b915061132c826112eb565b602082019050919050565b6000602082019050818103600083015261135081611314565b9050919050565b600060208201905061136c6000830184610be7565b9291505056fea2646970667358221220fc0715399a6cb73543de697f9dd691457a517ef94bebf23b886a2f6438bd55b764736f6c63430008130033",
  "immutableReferences": {},
  "source": "// SPDX-License-Identifier: MIT\r\npragma solidity ^0.8.19;\r\n\r\nimport \"./Transfer.sol\";\r\n\r\ncontract RideSharing {\r\n    enum RideStatus { NotStarted, Ongoing, Completed }\r\n\r\n    struct Ride {\r\n    uint id;\r\n    address payable driver;\r\n    string source;\r\n    string destination;\r\n    uint seats;\r\n    uint amount; // in wei\r\n    RideStatus status;\r\n    address payable user;\r\n}\r\n\r\nuint public rideCount;\r\nmapping(uint => Ride) public rides;\r\n\r\nevent RideProposed(\r\n    uint indexed id,\r\n    address indexed driver,\r\n    string source,\r\n    string destination,\r\n    uint seats,\r\n    uint amount\r\n);\r\nevent RideSelected(uint indexed id, address indexed user);\r\nevent RideCompleted(uint indexed id);\r\n\r\n// Reference to the Transfer contract\r\nTransfer private transferContract;\r\n\r\n// Constructor sets the Transfer contract's address (hardcoded)\r\nconstructor() {\r\n    transferContract = Transfer(0x83bCa54E0689d3e2fBB8ca4BbBB497A2614dc55A);\r\n}\r\n\r\nfunction proposeRide(\r\n    string memory _source,\r\n    string memory _destination,\r\n    uint _seats,\r\n    uint _amount\r\n) public {\r\n    rideCount++;\r\n    rides[rideCount] = Ride({\r\n        id: rideCount,\r\n        driver: payable(msg.sender),\r\n        source: _source,\r\n        destination: _destination,\r\n        seats: _seats,\r\n        amount: _amount,\r\n        status: RideStatus.NotStarted,\r\n        user: payable(address(0))\r\n    });\r\n    emit RideProposed(rideCount, msg.sender, _source, _destination, _seats, _amount);\r\n}\r\n\r\nfunction selectRide(uint _rideId) public payable {\r\n    require(_rideId > 0 && _rideId <= rideCount, \"Invalid ride ID\");\r\n    Ride storage ride = rides[_rideId];\r\n    require(ride.status == RideStatus.NotStarted, \"Ride not available\");\r\n    require(msg.value == ride.amount, \"Incorrect amount sent\");\r\n\r\n    ride.user = payable(msg.sender);\r\n    ride.status = RideStatus.Ongoing;\r\n    emit RideSelected(_rideId, msg.sender);\r\n}\r\n\r\nfunction completeRide(uint _rideId) public {\r\n    require(_rideId > 0 && _rideId <= rideCount, \"Invalid ride ID\");\r\n    Ride storage ride = rides[_rideId];\r\n    require(msg.sender == ride.driver, \"Only driver can complete ride\");\r\n    require(ride.status == RideStatus.Ongoing, \"Ride not ongoing\");\r\n\r\n    ride.status = RideStatus.Completed;\r\n    // Use the Transfer contract to send ETH to the driver\r\n    transferContract.transfer{ value: ride.amount }(ride.driver);\r\n    emit RideCompleted(_rideId);\r\n}\r\n}\r\n",
  "sourcePath": "C:\\Users\\barot\\OneDrive\\Desktop\\EcoRide - Copy\\contracts\\RideSharing.sol",
  "compiler": {
    "name": "solc",
    "version": "0.8.19+commit.7dd6d404.Emscripten.clang"
  },
  "schemaVersion": "3.4.16",
  "updatedAt": "2025-03-23T23:23:24.538Z",
  "devdoc": {
    "kind": "dev",
    "methods": {},
    "version": 1
  },
  "userdoc": {
    "kind": "user",
    "methods": {},
    "version": 1
  }
}